:10008400AD071FED600BE4FEEEC3947B50F20E80CF
:01009400F774
:010095002248
:0900A200EFD3940040031F80F726
:0100AB002232
:10007000C290EFD39400400BB290E4FE0EBE06FC9B
:030080001F80EFEF
:01008300225A
:1000550030010B7F18120070C2907F2880097F0C39
:0B006500120070C2907F501200A22217
:02003100AD0719
:100033007F28120070C2907F781200A2E4FBED3398
:100043009200A2009201120055ED25E0FD0BBB08C2
:01005300EDBF
:010054002289
:10000300C2907C647FFA1200847F641200847FFABA
:100013001200847FFA120084E4FAE4FF1200310A2A
:0E002300BA0AF7AF041200310CBCFAD880D232
:0300000002009665
:0C009600787FE4F6D8FD7581200200039D
:00000001FF
