:10018500022B30390A21303132333435363738399C
:10019500122E77656C636F6D6520746F2075732003
:1001A5002020200012403F3F3F20202020202020FB
:0801B500202020202020200062
:10027A00AD071FED600BE4FEEEC3947B50F20E80D7
:01028A00F77C
:01028B002250
:07029D008F801202A4D2A51C
:0402A4000000002234
:10026700C2A7D2A6D2A51202A4E580339200C2A5E6
:02027700A200E3
:010279002262
:1002530012026740FBC2A7C2A6C2A51202A41202E1
:040263009DC2A52271
:0702B200EF4480FF0202533C
:10028C0012026740FBD2A7C2A6C2A512029DC2A54C
:01029C00223F
:1001EF007F381202537F0112027A7F0C1202537F63
:1001FF000112027A7F061202537F0112027A7F01E7
:06020F0012025302027A04
:04008F008E098F0A3D
:10009300E4FBD3E50A9400E50994004054E50A45DE
:1000A300096023AE09AF0A7C007D0A1200F5740BC8
:1000B3002BF8A605AE09AF0A7C007D0A1200F58E67
:1000C300098F0A0B80D77F401202B2AF031BEF6088
:1000D3000F740B2BF8E62421F8E6FF12028C80EB59
:1000E3007F2012028C1202A412028C1202A41202AA
:0100F3008C80
:0100F40022E9
:0902A800EFD3940040031F80F71E
:0102B100222A
:100215002090FD7F021202A82090FD20900E050976
:0E022500E509B46A037F0022000080EFAF09F4
:0102330022A8
:100234003090FD7F0F1202A82090037F0022E4FF7C
:0E02440030900B0FBF57037F0022000080F2A6
:010252002289
:10014A00E4FE120215EFD39448402AE4FD12023469
:10015A00EE25E0FEEFD3943540054306018010EF0B
:10016A00D394134007EF942E500280037F00220D90
:0A017A00BD08DA80037F0022AF0603
:010184002258
:1001BE001201EF7F0A12027AE4FF1202B2742E25A8
:1001CE0008F8E6FF600712028C050880F0D2903026
:1001DE0090FB12014A752B008F2CAE2B12008F80D4
:0101EE00EC24
:03000000020003F8
:0C000300787FE4F6D8FD75815102004AB8
:1000F500BC000BBE0029EF8DF084FFADF022E4CCEF
:10010500F875F008EF2FFFEE33FEEC33FCEE9DECB7
:10011500984005FCEE9DFE0FD5F0E9E4CEFD22EDFD
:10012500F8F5F0EE8420D21CFEADF075F008EF2F47
:10013500FFED33FD4007985006D5F0F222C398FD38
:050145000FD5F0EA22D5
:10000F000201BEE493A3F8E493A34003F68001F248
:10001F0008DFF48029E493A3F85407240CC8C333F2
:10002F00C4540F4420C8834004F456800146F6DFC1
:10003F00E4800B0102040810204080900185E47ECB
:10004F00019360BCA3FF543F30E509541FFEE493B6
:10005F00A360010ECF54C025E060A840B8E493A37D
:10006F00FAE493A3F8E493A3C8C582C8CAC583CAA8
:10007F00F0A3C8C582C8CAC583CADFE9DEE780BE60
:0101BD000041
:00000001FF
